{
  "_format": "hh-sol-artifact-1",
  "contractName": "DarkForest",
  "sourceName": "contracts/darkForest.sol",
  "abi": [
    {
      "inputs": [
        {
          "internalType": "address",
          "name": "_verifier",
          "type": "address"
        }
      ],
      "stateMutability": "nonpayable",
      "type": "constructor"
    },
    {
      "inputs": [
        {
          "internalType": "uint256[2]",
          "name": "a",
          "type": "uint256[2]"
        },
        {
          "internalType": "uint256[2][2]",
          "name": "b",
          "type": "uint256[2][2]"
        },
        {
          "internalType": "uint256[2]",
          "name": "c",
          "type": "uint256[2]"
        },
        {
          "internalType": "uint256[1]",
          "name": "input",
          "type": "uint256[1]"
        }
      ],
      "name": "spawn",
      "outputs": [],
      "stateMutability": "nonpayable",
      "type": "function"
    },
    {
      "inputs": [],
      "name": "verifierAddr",
      "outputs": [
        {
          "internalType": "address",
          "name": "",
          "type": "address"
        }
      ],
      "stateMutability": "view",
      "type": "function"
    }
  ],
  "bytecode": "0x608060405234801561001057600080fd5b50604051610e1c380380610e1c8339818101604052810190610032919061008d565b806000806101000a81548173ffffffffffffffffffffffffffffffffffffffff021916908373ffffffffffffffffffffffffffffffffffffffff160217905550506100ff565b600081519050610087816100e8565b92915050565b60006020828403121561009f57600080fd5b60006100ad84828501610078565b91505092915050565b60006100c1826100c8565b9050919050565b600073ffffffffffffffffffffffffffffffffffffffff82169050919050565b6100f1816100b6565b81146100fc57600080fd5b50565b610d0e8061010e6000396000f3fe608060405234801561001057600080fd5b50600436106100365760003560e01c8063663ea2e21461003b578063d269a43114610059575b600080fd5b610043610075565b60405161005091906108a5565b60405180910390f35b610073600480360381019061006e9190610604565b610099565b005b60008054906101000a900473ffffffffffffffffffffffffffffffffffffffff1681565b6100e0816000600181106100d6577f4e487b7100000000000000000000000000000000000000000000000000000000600052603260045260246000fd5b6020020151610354565b61011f576040517f08c379a000000000000000000000000000000000000000000000000000000000815260040161011690610927565b60405180910390fd5b600360008260006001811061015d577f4e487b7100000000000000000000000000000000000000000000000000000000600052603260045260246000fd5b6020020151815260200190815260200160002060009054906101000a900460ff16156101be576040517f08c379a00000000000000000000000000000000000000000000000000000000081526004016101b590610947565b60405180910390fd5b6101ca84848484610380565b610209576040517f08c379a000000000000000000000000000000000000000000000000000000000815260040161020090610907565b60405180910390fd5b80600060018110610243577f4e487b7100000000000000000000000000000000000000000000000000000000600052603260045260246000fd5b6020020151600260003373ffffffffffffffffffffffffffffffffffffffff1673ffffffffffffffffffffffffffffffffffffffff16815260200190815260200160002060000181905550600160036000836000600181106102ce577f4e487b7100000000000000000000000000000000000000000000000000000000600052603260045260246000fd5b6020020151815260200190815260200160002060006101000a81548160ff021916908315150217905550426001600083600060018110610337577f4e487b7100000000000000000000000000000000000000000000000000000000600052603260045260246000fd5b602002015181526020019081526020016000208190555050505050565b600061012c6001600084815260200190815260200160002054426103789190610aa1565b119050919050565b60008060009054906101000a900473ffffffffffffffffffffffffffffffffffffffff1673ffffffffffffffffffffffffffffffffffffffff166343753b4d868686866040518563ffffffff1660e01b81526004016103e294939291906108c0565b60206040518083038186803b1580156103fa57600080fd5b505afa15801561040e573d6000803e3d6000fd5b505050506040513d601f19601f820116820180604052508101906104329190610669565b9050949350505050565b600061044f61044a8461098c565b610967565b9050808285604086028201111561046557600080fd5b60005b85811015610495578161047b88826105b3565b845260208401935060408301925050600181019050610468565b5050509392505050565b60006104b26104ad846109b2565b610967565b905080828560208602820111156104c857600080fd5b60005b858110156104f857816104de88826105ef565b8452602084019350602083019250506001810190506104cb565b5050509392505050565b6000610515610510846109d8565b610967565b9050808285602086028201111561052b57600080fd5b60005b8581101561055b578161054188826105ef565b84526020840193506020830192505060018101905061052e565b5050509392505050565b600082601f83011261057657600080fd5b600261058384828561043c565b91505092915050565b600082601f83011261059d57600080fd5b60016105aa84828561049f565b91505092915050565b600082601f8301126105c457600080fd5b60026105d1848285610502565b91505092915050565b6000815190506105e981610caa565b92915050565b6000813590506105fe81610cc1565b92915050565b600080600080610120858703121561061b57600080fd5b6000610629878288016105b3565b945050604061063a87828801610565565b93505060c061064b878288016105b3565b92505061010061065d8782880161058c565b91505092959194509250565b60006020828403121561067b57600080fd5b6000610689848285016105da565b91505092915050565b600061069e838361077f565b60408301905092915050565b60006106b68383610896565b60208301905092915050565b6106cb81610ad5565b82525050565b6106da81610a1c565b6106e48184610a64565b92506106ef826109fe565b8060005b838110156107205781516107078782610692565b965061071283610a3d565b9250506001810190506106f3565b505050505050565b61073181610a27565b61073b8184610a6f565b925061074682610a08565b8060005b8381101561077757815161075e87826106aa565b965061076983610a4a565b92505060018101905061074a565b505050505050565b61078881610a32565b6107928184610a7a565b925061079d82610a12565b8060005b838110156107ce5781516107b587826106aa565b96506107c083610a57565b9250506001810190506107a1565b505050505050565b6107df81610a32565b6107e98184610a85565b92506107f482610a12565b8060005b8381101561082557815161080c87826106aa565b965061081783610a57565b9250506001810190506107f8565b505050505050565b600061083a601a83610a90565b915061084582610bbd565b602082019050919050565b600061085d604683610a90565b915061086882610be6565b606082019050919050565b6000610880603683610a90565b915061088b82610c5b565b604082019050919050565b61089f81610b13565b82525050565b60006020820190506108ba60008301846106c2565b92915050565b6000610120820190506108d660008301876107d6565b6108e360408301866106d1565b6108f060c08301856107d6565b6108fe610100830184610728565b95945050505050565b600060208201905081810360008301526109208161082d565b9050919050565b6000602082019050818103600083015261094081610850565b9050919050565b6000602082019050818103600083015261096081610873565b9050919050565b6000610971610982565b905061097d8282610b1d565b919050565b6000604051905090565b600067ffffffffffffffff8211156109a7576109a6610b7d565b5b602082029050919050565b600067ffffffffffffffff8211156109cd576109cc610b7d565b5b602082029050919050565b600067ffffffffffffffff8211156109f3576109f2610b7d565b5b602082029050919050565b6000819050919050565b6000819050919050565b6000819050919050565b600060029050919050565b600060019050919050565b600060029050919050565b6000602082019050919050565b6000602082019050919050565b6000602082019050919050565b600081905092915050565b600081905092915050565b600081905092915050565b600081905092915050565b600082825260208201905092915050565b6000610aac82610b13565b9150610ab783610b13565b925082821015610aca57610ac9610b4e565b5b828203905092915050565b6000610ae082610af3565b9050919050565b60008115159050919050565b600073ffffffffffffffffffffffffffffffffffffffff82169050919050565b6000819050919050565b610b2682610bac565b810181811067ffffffffffffffff82111715610b4557610b44610b7d565b5b80604052505050565b7f4e487b7100000000000000000000000000000000000000000000000000000000600052601160045260246000fd5b7f4e487b7100000000000000000000000000000000000000000000000000000000600052604160045260246000fd5b6000601f19601f8301169050919050565b7f596f75722070726f6f66206973206e6f7420766572666965642e000000000000600082015250565b7f4f7468657220706c6179657273206861766520737061776e656420617420746860008201527f697320706f736974696f6e2077697468696e20746865206c6173742035206d6960208201527f6e757465732e0000000000000000000000000000000000000000000000000000604082015250565b7f5468697320706f736974696f6e2069732063757272656e746c79206f6363757060008201527f69656420627920616e6f7468657220706c617965722e00000000000000000000602082015250565b610cb381610ae7565b8114610cbe57600080fd5b50565b610cca81610b13565b8114610cd557600080fd5b5056fea26469706673582212204be0029f3382dda1647428bd3fc75afdfc90620c2c743275c32643aba055ff7064736f6c63430008040033",
  "linkReferences": {},
  "deployedLinkReferences": {}
}